:020000040002F8
:10600000B8B7002009E20200ED1E0500F5E102002C
:10601000F5E10200F5E10200F5E1020000000000F8
:1060200000000000000000000000000019E3020072
:10603000F5E102000000000089E20200F5E1020043
:1060400029E50200F13E040029E5020029E50200ED
:1060500029E5020029E5020029E5020029E5020000
:1060600029E5020029E5020029E5020029E50200F0
:1060700029E5020029E5020029E5020029E50200E0
:1060800029E5020029E5020029E5020029E50200D0
:1060900029E5020029E5020029E5020029E50200C0
:1060A00029E5020029E5020029E5020029E50200B0
:1060B00029E5020029E5020029E5020029E50200A0
:1060C00029E5020029E5020029E5020029E5020090
:1060D00029E5020029E5020029E5020029E5020080
:1060E00029E5020029E5020029E5020029E5020070
:1060F00029E5020029E5020029E5020029E5020060
:1061000053B94AB9002908BF00281CBF4FF0FF311E
:106110004FF0FF3000F00CB8ADF1080C6DE904CE83
:1061200000F022F8DDF804E0DDE9022304B0704756
:10613000704700BF10F8012B11F8013B012A28BF5E
:106140009A42F7D0D01A7047034611F8012B03F892
:10615000012B002AF9D17047034613F8012B002ABE
:10616000FBD1181A013870472DE9F04786468C4656
:106170000846089E154674461946002B40F0C2801A
:106180008542B2FA82F245D94AB1C2F1200300FA3F
:1061900002FC2EFA03F3954043EA0C0C94404FEABC
:1061A000154EA8B2BCFBFEF8230C0EFB18CC08FB66
:1061B00000F943EA0C43994528D9EB1808F1FF3759
:1061C00004D2994502D9A8F102072B44A3EB090395
:1061D000A4B2B3FBFEFC0EFB1C330CFB00F044EA44
:1061E0000344A04214D92C190CF1FF3304D2A0426D
:1061F00002D9ACF102032C44241A43EA07401EB131
:10620000D440002334607360BDE8F0874746DDE783
:106210006346F1E792BB431B01214FEA154EAFB233
:10622000B3FBFEFC200C0EFB1C330CFB07F840EA12
:106230000343984562D9EB180CF1FF3004D298451E
:1062400002D9ACF102002B44A3EB0803A4B2B3FBC8
:10625000FEFC0EFB1C330CFB07F744EA0344A74289
:106260004ED92C190CF1FF3304D2A74202D9ACF15C
:1062700002032C44E41B43EA0040C0E7C2F12003C0
:1062800020FA03F1954090402EFA03F303434FEABE
:10629000154EAFB2B1FBFEFC0EFB1C10190C0CFB33
:1062A00007F841EA0041884504FA02F422D9691846
:1062B0000CF1FF3004D2884502D9ACF10200294428
:1062C000A1EB08019BB2B1FBFEFC0EFB1C110CFB09
:1062D00007F743EA01439F420ED9EB180CF1FF3157
:1062E00004D29F4202D9ACF102012B44DB1B41EAEC
:1062F000004192E76046E3E76146F7E76046A3E7BF
:106300006346B7E7834206D916B9002108467BE702
:10631000C6E900E0F9E7B3FA83F78FB9834201D306
:10632000724508D8BEEB020460EB030301209C46D3
:106330001EB9002168E73846FAE7C6E9004CF8E7DD
:10634000C7F1200CBB4022FA0CF41C432EFA0CF1CE
:1063500020FA0CF3B84001434FEA14490EFA07F54E
:10636000B3FBF9F81FFA84FE09FB18300B0C08FB8D
:106370000EFA43EA00439A4502FA07F240D9E318BD
:1063800008F1FF3004D29A4502D9A8F10200234453
:10639000A3EB0A0389B2B3FBF9F809FB183308FB36
:1063A0000EFE41EA03418E452CD9611808F1FF33F6
:1063B00004D28E4502D9A8F10203214443EA0040E9
:1063C000A0FB0298A1EB0E014145CE46434602D305
:1063D00006D14D4504D2B9EB020E68EB0403013837
:1063E000002EA6D0B5EB0E0261EB030101FA0CFC06
:1063F00022FA07F34CEA0303F940C6E9003198E7B3
:106400004046C5E74346D9E7F7B5002101AA40F663
:10641000034009F02BFA044600286CD1019CE36884
:106420001B789BB90AF096FCBFF35B8FBA4B1A68D6
:10643000BFF35B8F02F00902BFF35B8F53E8001FCD
:1064400043E800200028F9D1BFF35B8F204608F015
:10645000CFFA01AA002141F2030009F007FA04462D
:10646000002848D1019AAD4DD168D1F80100D1F88A
:10647000051005F1780303C3104608F0B9FA214668
:1064800001AA41F2010009F0F1F9044698BB019814
:10649000C3685A7885F870205A88A5F872201A794E
:1064A00085F87120B3F80720A5F87420B3F80530FB
:1064B000A5F8763008F09CFA214601AA41F20200C4
:1064C00009F0D4F90446B0B9019FFA6805F18006D5
:1064D000531C413218685968344603C40833934248
:1064E0002646F7D1384608F083FA95F87C305B06EB
:1064F00004D46FF01204204603B0F0BD01AA0021BD
:1065000042F2030009F0B2F904460028F3D1019BDE
:10651000834EDA68D2F80100D2F8051003C6184697
:1065200008F066FA214601AA42F2020009F09EF93B
:1065300004460028DFD1019CE368B3F8012091B242
:1065400049B1D97839B1A5F80421DA78114606F1B4
:10655000280032F0DEFA204608F04AFA95F87C600E
:106560001F2316F02006A5F8203118D1022140F68D
:106570006D4008F0D5FF0446002800F0C4800221D9
:106580000C302BF069FD0123037046702146324622
:1065900040F66D4009F06AF904460028ABD195F841
:1065A0009C301F0712D501AA002142F21C0009F0FD
:1065B0005DF9044600289ED10198C368D3F80120F4
:1065C000D3F80530C5E9382308F012FA95F8D83029
:1065D0009E0624D50DF1020168462CF0F4F904461C
:1065E000002888D1042142F2240008F099FF0646D1
:1065F000002800F0888004210C302BF02DFDBDF820
:1066000000300380BDF8023043802246314642F21A
:10661000240009F02BF9044600287FF46CAF95F8AC
:10662000D8305C0610D501AA002142F22A0009F0F8
:106630001DF9044600287FF45EAF0198C3685B78BB
:1066400085F8223108F0D4F9082142F2010008F05F
:1066500067FF0446002856D008210C302BF0FCFCC4
:1066600095F8D81011F0400F024640F2022308BFFF
:10667000032388074CBF43F02C0043F00C0095F82F
:10668000D9308F0648BF40F0400013F0090F18BF03
:1066900040F40060CE0748BF40F0100000212BF00E
:1066A00068FF2146002242F2010009F0DFF80446AB
:1066B00000287FF420AF95F87C30B5F804119806D7
:1066C00024D4C9B901AA41F2050009F0CFF8044663
:1066D00000287FF410AFB5F80431019C4BB9E36892
:1066E000B3F80120A5F804219A880E48114632F02B
:1066F00010FA204608F07CF9082140F6014008F025
:106700000FFF044680B96FF06804F4E60029F3D166
:106710006FF00404EFE600BF1401002040000020E9
:10672000180100204801002008210C302BF094FCB7
:1067300095F8D830D907024653BF4FF000512CA12D
:10674000D1E9000128482BF014FF2146002240F631
:10675000014009F08BF8044600287FF4CCAE0146D6
:1067600001AA4FF6014009F081F8044620BB0198C8
:1067700008F03EF9214601AA4FF6024009F076F8EA
:106780000446C8B90198C368B3F80130A5F8C13010
:1067900008F02EF995F8C1305B070DD501AA214606
:1067A0004FF6034009F062F830B90198C3685B788E
:1067B00085F8C03008F01CF92CF023FB04460028B3
:1067C0007FF499AE0BF004FE044600287FF493AEEC
:1067D000EB79002B3FF48FAE082104482BF037FEF5
:1067E00008F08EFF87E600BF108800021401002029
:1067F00090880002008000202DE9F843D0E9073896
:10680000856903EB08042F34A5420F46164619D8B4
:10681000DFF87080A3FB080117A3D3E90023FFF77B
:106820006FFC0346601BA0FB080123F07F4412A30A
:10683000D3E90023FFF764FC20F07F403C60306028
:10684000BDE8F883DFF83C900BA3D3E90023A5FB58
:106850000901FFF755FC20F07F4409480A2106A3EF
:10686000D3E90023E8FB0901FFF74AFC20F07F4051
:106870003C603060BDE8F8838D49FD1A07000000D8
:1068800000166BF100CA9A3B9FED0D7B124B134A29
:106890001348144910B483ED007B9FED0B7B82ED10
:1068A000007B9FED0B7B104B4FF0FF34002281EDFE
:1068B000007B04601A605DF8044B13F0F9B800BF68
:1068C000FFFFFFFFFF1F00000000000000000000AE
:1068D0001F00000000000000D0010020402F002019
:1068E000EC5D0020C8010020E45D002000000000F5
:1068F000002800F05F812DE9F04FB54C94F86A2034
:1069000012F001058DB040F0A78194F82500FF2317
:1069100000F0030084F826301CF0B0FD94F86A0003
:10692000420727D494F8292094F8353004EB8202EA
:1069300004EB8303D66AD3F8388086B1A448314685
:1069400015F062F833785B0605D506210FF0E0FEFE
:10695000002800F083819E48414615F055F83378B1
:1069600013F00E0F40F0B780236A93B10C200DB0E6
:10697000BDE8F08F2A4604F16B01C0F3C0001CF0A3
:1069800021FFFF2884F82600CCD028461CF0BCFD4F
:10699000C8E712F05FFB8146002800F0718112F019
:1069A00065FB8246002800F0688115F077FC0546FB
:1069B000002800F06781D0F894004FF6FF732B8613
:1069C00005F11C0B002800F04F8105F1840105F151
:1069D00088020FF0A9FEB5F882307E4A23F4EF63F7
:1069E00023F0070343F48C7343F00103A5F88230CE
:1069F0001346D2F80120C5F8AB21C5F8B12113F830
:106A0000012B9B88A5F8AF31A5F8B53195F8AA31CF
:106A100002F0010262F3000362F3410385F8AA3138
:106A200095F8433003F03F0363F07F0385F843306C
:106A300095F89A3023F0070385F89A3095F8483096
:106A400023F00F03002785F848304FF4C023C5F822
:106A500098312846C5E91577C5F89470A5F898705F
:106A600085F84570EF86C5F83A70EF65A5F89E7118
:106A7000A5F8947118F020FA85F86071C5F8649152
:106A800015F0FAFE95F8A43160F3020385F8A431FD
:106A900015F0F8FE95F8A43160F3C50385F8A4312C
:106AA00095F8903167F3410385F89031012128462C
:106AB00016F042FB05F1E00017F0A6FFC4E9189AB2
:106AC000C4F820B0C5E905772F70ED611EF052F8CB
:106AD000002840F0C58094F824300121C3F342031C
:106AE0000DF12B008DF82B300FF0BCFF0246002873
:106AF00062D098F80110304614F040FD3123364939
:106B0000A360364BB4F86870A0FB01010025C018E3
:106B100041F107012CA3D3E90023C4E905552570F1
:106B20006560E560FFF7ECFA206111F07DFB00F194
:106B300009083FB9357805F00F05A5F10105B5FA4B
:106B400085F56D0994F82400236965F3000010F0C1
:106B5000010584F824004BD0214A099200201060DE
:106B60000225204A204F04930BAE01930592032186
:106B7000CDE90200069443460090089607972A46FE
:106B80000B9511F0EFF9314612F026FBA0B9174929
:106B900005914AF2D8330093CDE90300CDE9010015
:106BA0000797089606944346012203210B9511F09E
:106BB000A5F943E014F02EBC236A002B3FF4D6AEB7
:106BC00014F0E4FBD2E600BF8D49FD1A0700000077
:106BD000A45E002010DC050000CA9A3B8C49FD1A17
:106BE000985E0020F9B50300C5830300D5B003000B
:106BF0002B4A2C48049303F24713069402959121E3
:106C00001360A7FB000301FB0731274B0793274BBA
:106C100005934FF6FF730992022703930BAE1EA351
:106C2000D3E900230B970896FFF76AFA4346CDE9AC
:106C300000503A462846032111F094F9314612F0EB
:106C4000CBFA0028B8D194F86A3043F0010384F8F5
:106C50006A3015F003F960B1002088E6122086E65C
:106C600014F094FB032082E605F18C00C5F8940033
:106C7000ABE601201CF0E4FBEEE7484612F0F0F929
:106C8000072074E6504612F0F7F9484612F0E8F98A
:106C9000F6E700BFAFF300808D49FD1A0700000042
:106CA000985E0020002AE784C5830300F9B503003D
:106CB00070B590F824308AB0C3F342030D46044601
:106CC00001210DF1230016468DF823300FF0CAFE86
:106CD00071780246284614F051FC1F491F4AA0FB58
:106CE0000131981841F1070119A3D3E90023FFF7F7
:106CF00007FA23699842054621D21B1A0022019205
:106D0000174A0293174BA21AA3FB023202219209DF
:106D100000230A4409AE099113490591CDE90333D3
:106D20000321D2B206960093184611F07BF9314642
:106D300012F052FA38B9256100200AB070BDFBD9B3
:106D4000C21A0023DBE70C200AB070BDAFF300804D
:106D50008D49FD1A0700000000CA9A3B8C49FD1AB4
:106D6000A45E002089888888C58303000000000095
:106D700038B5194C9DF810E094F848C01CF0010596
:106D800023D163F3420C400194F83230A1874FEADB
:106D9000CE0E0EF0180E00F0200040EA0E0023F098
:106DA000380303430D4884F832309121A2FB0003DD
:106DB00084F848C001FB023105A3D3E90023FFF7A3
:106DC0009FF9C4E91000284638BD0C25284638BD77
:106DD0008D49FD1A07000000482F0020002AE78493
:106DE00010B504469DF8080022844FEA411CC000FB
:106DF000A17D00F018000CF0200C4CEA000C0C48AF
:106E000021F038014CEA010CA3FB0002912184F827
:106E100016C001FB032104A3D3E90023FFF770F997
:106E2000606210BDAFF300808D49FD1A07000000BD
:106E3000002AE784000000002DE9F047044600F135
:106E4000350190F8480094F832305B4DDFF88081CE
:106E5000C0F3400060F386138CB084F8323011F038
:106E600035FA94F83220A38F5448E46102F0790295
:106E7000002784F832209121A3FB0002C4E90577A2
:106E8000277001FB03214AA3D3E90023FFF738F958
:106E9000651B626C4A4B6760AD08A3FB053502F1C8
:106EA0000903984298BF3A46C5F3470522644FF05C
:106EB00031028CBF19460146A26005EB4502E7602E
:106EC000216148F82210064611F0AEF9236A00F15C
:106ED00009074FEA450A002B4AD00DF12C09AA44B4
:106EE00008EB8A030993CDF820900694A38F3348CA
:106EF0004FF00008A3FB0002CDF80C80912101FBAC
:106F00000321236904932F4B07932F4B05934FF0D5
:106F1000020A27A3D3E90023CDF82CA0FFF7F0F84D
:106F2000104619464FF47A720023FFF7E9F804354A
:106F3000EDB2CDE9016003213B462A46CDF8008041
:106F4000404611F00FF8494612F046F960B994F83E
:106F5000483043F0010384F8483014F02BFD08B3A7
:106F600000200CB0BDE8F0870C200CB0BDE8F08725
:106F70000DF12C09CDE90A3321694B460AAA0320F9
:106F800001F02AFA0028AAD10B99104808A3D3E9E6
:106F90000023A1FB0001FFF7B3F80A9B20F07F4715
:106FA0001F449CE750461CF04BFAD9E7AFF3008032
:106FB0008D49FD1A07000000482F0020002AE784B1
:106FC000BD86F21AC583030031BC030000CA9A3B98
:106FD000345F0020000000002DE9F04F05468BB023
:106FE0008B46012002219946144620F04BF90022DD
:106FF0000221824601200FF0E7FB3F494FF4DC728B
:1070000028460FF071FB461D3C4B0093F6B20195EC
:107010004B4632460121002011F05EF810F0FD0FC2
:107020000ED0374A3749384840F68F032AF039F8EE
:10703000002383F31188BFF36F8F0323184602DF09
:10704000324BA4FB0348204629A3D3E90023414641
:10705000FFF756F82E4B20F07F47A7FB033107229E
:10706000E01A02FB071168EB01014FF47A7200236A
:10707000FFF746F8CDE90170CDF800B00895069508
:10708000296995F9434023480491234931EA2401B1
:1070900028BF01460591214C07944FF6FE710391DC
:1070A0004B4632460121002010F028FF10F0FD0F62
:1070B0000ED0134A1349144840F6A40329F0F1FFF7
:1070C000002383F31188BFF36F8F0323184602DF79
:1070D000BAF1000F02D10BB0BDE8F08F01220221FE
:1070E00010460BB0BDE8F04F0FF06EBBAFF3008061
:1070F0008D49FD1A07000000982F00203DC20300B3
:1071000030BC0500F4BC05005CB6050000CA9A3B23
:107110008D49FD1A692504001D270400DDC1030007
:107120002DE9F0418468228E4FF6FF739A428CB0AD
:1071300045D00546204618F0D9F92B7D012B00F0EB
:107140002281022B00F01581002B00F0F48094F8CE
:107150006061002E40F010812B8A678F94F94320E4
:10716000CDE90A6673B3002AC0F25A810023A4F85D
:107170009A31AA7C238FFD1802F003030135012BFD
:10718000ADB23BD0B4F89E31002B00F005819D429A
:1071900080F059815B1B9BB20022062BA4F89E3124
:1071A000628740F2F68094F943309342C0F25081F6
:1071B000002326E09DF82710204615F081FC0CB036
:1071C000BDE8F081002AB8BF84F88561238FAA7CCE
:1071D000FD1802F003030135012BADB20ED0B4F857
:1071E0009A31002BCED0AB4240F23C815B1BA4F81D
:1071F0009A31B4F89E31002BC9D102E00023A4F8E3
:107200009E3194F8482063F3820284F8482029468E
:107210000DF12702204617F08BFE7430CAD0B4F867
:1072200098312BB1AB4240F2EC805B1BA4F8983153
:10723000B4F894312BB1AB4240F2DA805B1BA4F876
:107240009431658F16B9AF4200F0C9800135ADB2F7
:1072500094F8DD3013F0010731D1DDE90A130A4655
:10726000002B40F0CC80002900F0BB801F46184660
:10727000228EE4690694CDE9035605329A4D0290B8
:10728000CDE90017D2B201210020059510F0CAFE09
:1072900010F0FD0F93D011F0C9FF84428FD0934AB4
:1072A000934994484FF4AE6329F0FBFE002383F327
:1072B0001188BFF36F8F0323184602DF7FE794F92D
:1072C00043206FF30003002A84F8DD307FDB94F85D
:1072D0008200C0F3C00100F007001DF063FAB4F8AB
:1072E0007A20B4F878301344628D03F23F131344CC
:1072F0000344814A81480721E3FB0021104678A31B
:10730000D3E90023FEF7FCFEDDE90A1320F07F42FB
:1073100020692261904235BF171A801A0020002789
:107320000A46002BA4D157EA010CA1D1002858D05D
:1073300019461F469CE794F89A3003F01803182B5F
:107340007FF405AFA18EB4F896218B1D9A42C4BF7D
:10735000931F5B1AB4F89211CCBF9BB213469942AB
:1073600000F09C80A4F89231A4F89431A4F89821FC
:10737000EDE63D2684F86061314620460CB0BDE85C
:10738000F04115F09DBB0023A4F89831A4F8943186
:10739000DDE60126334634E7628E052A97BF0132C7
:1073A00040F2E2434FF4FA7392B203FB02F2B4F8F4
:1073B0009C3142F2107101FB0323013BB3FBF2F35A
:1073C0009BB2A4F89E31002B7FF4E1AE19E794F84C
:1073D0008300012100F007001DF0E6F97FE7354644
:1073E00036E7002D43D00027114638463B463FE79D
:1073F0000023A4F89431204617F03CFE21E73846DC
:1074000036E711F07BFE0146A0B30023A4F89831C3
:10741000238EC3801B230371006811F03FFE07E732
:1074200094F885316BB3013B84F8853104F1E008B1
:10743000404617F02BFBB8B3404617F027FBB8B314
:107440000023638792E60821204615F039FBB6E653
:10745000A7B9D4F888315A0813F0010336D1C4F81B
:107460008821A5E63E21204615F02AFBA7E6002E3E
:10747000B9D1A4E60123A4F89831D9E61346012630
:10748000BFE60AAA0BA92846FFF7B6F9DDE90A23E9
:107490001343CBD0237884F88531C7E7B4F898112B
:1074A00000297FF454AE5FE7FF2015F0C5FAC3E76B
:1074B0000246D4E921010FF04FF90028C0D194F819
:1074C00048301B0744BFA38E63874FE642F000425B
:1074D0001E46C4F888213B4693E600BFAFF3008008
:1074E0008D49FD1A0700000099C1030030BC05005A
:1074F00040BD05005CB605008C49FD1A00CA9A3BE8
:107500002DE9F04F87B0CDE90432BDF8442003786F
:107510000292BDF84820BDF840A0BDF84C90878F7E
:10752000019104460392002B00F0FC80013FBFB2A2
:10753000A368D4F81CB1A7EB090292B2002B009209
:107540000ADAE168626823F0004391422CBF8B4461
:107550009344A360ABEB030B94F88200C0F3C0012B
:1075600000F007001DF01EF9658E052D40F2E18048
:10757000009BBAF1050F15FB03F5ADB240F2E248EE
:1075800040F2E280B4F87A20B4F87830134403F281
:10759000D51303447C4A7D480721E3FB00214FF0CB
:1075A0009613A36296231046A38575A3D3E90023FF
:1075B000FEF7A6FD564620F07F4040F2E24308FB6E
:1075C00005F103FB06F6B1FBF6F81FFA88F520611A
:1075D00006FB05F08142A84680F09680401A6B4970
:1075E00067A3D3E90023A0FB0101FEF789FD20F08A
:1075F0007F408344E38EB4F824211344994494F8E3
:107600004330A9EB0709C844DB09A4F8368000F031
:10761000A780E26C0099636D02FB113363651DF076
:10762000FBFA074694F88401C0F342001DF0F6FA15
:10763000074406FB07F7564B07F5742707F23F2769
:10764000A3FB0737BF0C636DE76405FB07F0720807
:107650000344963A934228BF1346C4E91423059B7A
:107660004A4D40F2E24808FB03F3E3650023A0FB28
:107670000501C4F88C3142A3D3E90023FEF740FD95
:10768000049BABEB000B4348A0FB0330800A08FBD4
:1076900000F0A0FB05013AA3D3E90023FEF730FD7B
:1076A000F71B20F07F45029BA386039BA4F89C3127
:1076B00031462046A4F832A017F076FC364BA18E56
:1076C0003344881DB3FBF6F39AB29042A4F8962196
:1076D00004D2C1F57F41FA310A4492B2019BA4F869
:1076E000922113B10023A4F89E315B463A46294605
:1076F0002046FFF771FC94F8903143F0010384F8C1
:10770000903107B0BDE8F08F091A20481CA3D3E9D7
:107710000023A1FB0001FEF7F3FC20F07F40ABEB60
:10772000000B67E7C38E1F44B0F824311F44BFB27B
:10773000FEE6009B013515FB03F5BAF1050FADB26E
:107740004FF4FA783FF61EAF4FF096130AF1010698
:10775000A3629623A385B6B20A204FF4FA732EE7EC
:10776000049B0A48A3FB000105A3D3E90023FEF70D
:10777000C7FC20F07F453746013594E7AFF3008022
:107780008D49FD1A070000008C49FD1A00CA9A3B7A
:1077900083DE1B435917B7D17FC3C9010000000026
:1077A0002DE9F04F04460B68077F1668D3F800A058
:1077B000638CD0F81E0095B015464A7CADF84C306D
:1077C000FF2AC7F3801388460D9212908DF83F3040
:1077D00076D199461A4612AB93E803000DF1400B9F
:1077E0001090ADF84410F8090AF1710127680A9168
:1077F0005B460C900B9715F04BF80A99002847D17F
:1078000096F8AA310C9A0A9069F3410362F30003D7
:1078100086F8AA311098BBF80430C6F8B101A6F872
:10782000B531DAF87130C6F8AB318B88A6F8AF31D4
:10783000E38D94F83010A9722B81D4F82A306B6054
:10784000D4F83A30C5F8223005F1220094F83E30E1
:10785000037105210FF006F995F8273000F03F007D
:1078600060F3050385F8273094F83F30C3F3040133
:1078700085F82810A18EE982012803F01F0389B240
:1078800006D91B3303F01F030B2B01D80A9A59BBEF
:107890000022CAF8142095F82C300B9862F30003EC
:1078A00085F82C30E56801262146267111F0EAFBA7
:1078B00028682E71294611F0F1FB15B0BDE8F08F54
:1078C0000DF1400B10460DF13F015A461BF028FB0D
:1078D0009DF83F90277F09F102095FFA89F98DF839
:1078E0003F9009F001027EE7D8F800305A60E38E3D
:1078F0002B83EB8A40F2E24909FB03F71146638EC2
:107900000A93304617F064FB94F83F3096F88421D0
:107910005B0963F3430286F884211DF07DF90C9026
:1079200096F88401C0F342001DF078F90C9BC04A20
:10793000034407FB03F303F5742303F23F23A2FB85
:1079400003239B0C2B637B08963B6B6394F83130CD
:1079500009FB03F36B64238FA6F89C31394630464C
:1079600017F022FBB34BB44AC6F8A0213B44B3FB4B
:10797000F7F39AB2A6F89621298B881D824204DD7E
:10798000C1F57F41FA310A4492B2A6F892216B68A0
:10799000C6F88831234613F81C2FC2F34019DA07C2
:1079A00000F103814FF48073A3839AF826001CF042
:1079B00021F804F12B03002800F0F380626AC4F878
:1079C0002B20228D9A800D9BFF2B00F02681BDF885
:1079D0004C301298A4F82930C4F82500BBF80430C4
:1079E000A4F8233010989DF83F30C4F81F00A37707
:1079F000EB8A63862B8BA386B6F89C31E38696F8D8
:107A00008431C3F3420384F83830304614F052FC1A
:107A1000A882E08021460B98D8F8044011F032FB90
:107A2000AB8AE3801C23D4F800B02371B9F1000FB6
:107A300040F0D28084F81C902146584611F02EFB6D
:107A400095F86700B5F85C90B5F85E40012100F04C
:107A500007001CF0A9FE4C4404F2D514DFF8E491B1
:107A60000444834675484FF096130721C5E9033354
:107A7000E4FB090131230024B36074606AA3D3E9F5
:107A80000023F460FEF73CFB20F07F4030612D6B5B
:107A90000A9A7D1BD8F80C7040F2E24303FB027790
:107AA0000221224601200EF08FFE504613F068FF9F
:107AB00007F2B3470246A7EB0B07A7FB09011746DE
:107AC00059A3D3E90023FEF71BFBCDF804A0D8F897
:107AD00008305B49009120F07F49BA1C3A3BD2B292
:107AE0004B440121204610F0F7FA012800F0818074
:107AF0009AF82430DB0767D4304614F0DBFB514B97
:107B0000A5FB035A044648A3D3E90023284651465F
:107B1000FEF7F6FAD8F808304B4A0792A3F13A0874
:107B20004A4B069620F07F47A7FB0331E81A484BE3
:107B300005934FF4F573089333694FF0000BCDE9CB
:107B400003B34FF0070303FB07116AEB01014FF486
:107B50007A720023FEF7D4FA0534E4B2CDE901705D
:107B6000CDF80090434622460121584610F0C6F950
:107B700010F0FD0F0DD0374A3749384840F2EB136B
:107B800029F08FFA8BF31188BFF36F8F0323184608
:107B900002DF0122022110460EF016FE15B0BDE8EC
:107BA000F08FC4F82B0098800DE72A4A2C492B4807
:107BB000FD2329F076FA002383F31188BFF36F8F3A
:107BC0000323184602DFEDE6002301220093184646
:107BD000114610F03FFA8FE795F8273043F0400345
:107BE00085F82730281D1AF093FF4FF001092885EA
:107BF00020E711F01BFB82453FF47AAF154A194983
:107C0000164840F2922329F04CFA84F31188BFF30E
:107C10006F8F0323184602DF6AE70022C4F825208D
:107C2000A4F82920DAE600BF8D49FD1A07000000FC
:107C300083DE1B437FC3C901404B4C008C49FD1AB6
:107C40002925040000CA9A3BF52404008D49FD1A39
:107C50006925040038C20500F4BC05005CB60500C7
:107C600078B9050094C205002DE9F04F8DB09B4610
:107C7000BDF860300693CDE90401BDF868309DF889
:107C80005C90BDF864A003930020164614F0F4F84D
:107C9000002800F06C8109F001070446384610F016
:107CA00005FB0290002F71D1169B02995A46384667
:107CB00014F0EEFD002840F06B81236A089304F174
:107CC0001C020792002B68D0D4F82080D8F800500E
:107CD0000BF0010A98F86600C0F3C00100F007003D
:107CE0001CF060FDB8F85E30B8F85C201A44B8F8B3
:107CF0000E3000F23F1003441344CF48CF4A07210F
:107D0000E3FB00211046CAA3D3E90023FEF7F8F9EC
:107D100020F07F40286130461BF0D2FB94F83330CE
:107D20006FF3410384F83330FF2384F83430002E9E
:107D300000F02181A9F10203012B40F22D8194F87A
:107D40004810079869F3420184F8481094F83310FA
:107D50006AF30001DDE9042384F8331016990968F9
:107D600061621699898821850399218600960021F0
:107D7000FFF736F860641CF0FDFE002840F0178124
:107D80002046FFF759F80DB0BDE8F08F06210EF040
:107D9000BFFC002888D11220F5E711F05BF90990AB
:107DA000002800F07A8114F079FA0546002800F0E6
:107DB000718120300EF06AFE05F11C08002840F0A9
:107DC0002381032105F124001CF09EFB069BD5F8BE
:107DD00094006B864FF6FF73A5F834A02B8600281D
:107DE00000F0218105F1880205F184010EF09CFC70
:107DF000B5F8823023F4EF6323F0070343F48C7368
:107E000043F00103A5F8823095F89A304FF0000A4C
:107E100023F0070385F89A300121C5F894A0A5F84E
:107E200098A0284615F088F9A5F836A0C5F83AA01C
:107E300005F13E001AF016FE95F8433060F3050395
:107E4000012185F843300DF12F001CF05DFB039BF1
:107E50009DF82F20A5F89C31794B85F845A0A3FB10
:107E60000213DB0803EB4303A2EB830295F84330D4
:107E7000A98EA5F89EA103F03F0385F8433095F83D
:107E80004830A5F894A1053223F0070385F8442073
:107E9000069A85F8483040F2E24A6A4B0AFB02FA39
:107EA0004FF4C0225344C5F89821881DB3FBFAF360
:107EB0009AB28242A5F8962102DD063A521A92B28F
:107EC000A5F89221284616F0F7FF5146284617F0EC
:107ED0006BF80021099B85F86011C5F8643114F036
:107EE000CBFC95F8A43160F3020385F8A43114F0BB
:107EF000C9FC95F8A43160F3C50385F8A43195F861
:107F00009031002161F3410385F8903105F1E000E3
:107F100016F07AFD95F8AA31169A0BF0010A6AF369
:107F2000410385F8AA314FF09613C5E90A3331238E
:107F3000AB600021169B6960E9601B68C5F8B13130
:107F400095F8AA319288A5F8B52169F30003029A41
:107F500085F8AA311368C5F8AB319388A5F8AF311D
:107F6000C4F82080C5E905112970ED61B2E60C2046
:107F70000DB0BDE8F08F1BF0FDFE00283FF4DAAE37
:107F80001699584632461BF01DFC84F83400D1E6A1
:107F90000B200DB0BDE8F08F00201BF0B5FA94F86F
:107FA000333043F00203B94684F83330C7E6256A1C
:107FB000AB6F73B1244A2549254840F2294329F083
:107FC00070F8002383F31188BFF36F8F03231846E3
:107FD00002DF05F16C0105F168000EF0A9FB064611
:107FE000002839D02F68AE67D7F86451002D42D0F1
:107FF000284611F035F8384614F056F900230320CE
:1080000023620DB0BDE8F08F0F4A12491048C1231A
:1080100029F047F8089B83F31188BFF36F8F032380
:10802000184602DFCDE605F18C00C5F89400D9E6CC
:108030008D49FD1A0700000000CA9A3B8C49FD1AC1
:10804000ABAAAAAA7FC3C901C4C205000CBB050024
:108050005CB6050010B70500114A1249124840F2FB
:108060002B4329F01EF886F31188BFF36F8F03238B
:10807000184602DFB6E70A4A0A490B4840F2324383
:1080800029F00FF885F31188BFF36F8F032318468B
:1080900002DFADE7099810F0E3FF072073E600BFA9
:1080A000C4C2050080BC05005CB6050000000000ED
:1080B0002DE9F04F04468DB090F81C80238D406A66
:1080C000ADF82C30E307C8F3C0170E461546C8F3C9
:1080D00040180A9000F110810023A383B37C707CC8
:1080E00013F001031CBFD4F81E30C4F82B3004F188
:1080F0002B0214BF638CC4F82B30FF28938004F14B
:10810000250904F11F0200F0EA8004F11E011AF0B3
:1081100007FFA37FBDF82C200A98C4F8250002337E
:10812000A377A9F804203368D3F80090EB8A63861C
:108130002B8BA386B9F83030E3861CF06BFD84F8F6
:1081400038002F68384614F0B5F80021A882E08086
:10815000384616F03DFFD6F804A02068214610F0FE
:1081600091FFAB8AAAF806301C23DAF800408AF89F
:108170000430B8F1000F40F0CF808AF81C805146DF
:10818000204610F08BFFBB687A6895F86600B5F85A
:108190001680F5686A4C934238BF1346C0F3C0019D
:1081A00003F1090A00F0070040F2E24303FB08F87C
:1081B0001CF0F8FA002202212D1A01200EF004FB17
:1081C000484613F02FFEA5FB04455BA3D3E900232B
:1081D000834629462046FDF793FFCDF80490B36807
:1081E0005849009120F07F490BF10402A3EB0A03E8
:1081F000D2B24B44012100200FF06EFF10F0FD0FB2
:108200000ED0514A5149524840F2493328F049FFB3
:10821000002383F31188BFF36F8F0323184602DF17
:108220004FF0000B5B4603220121CDF800B0584609
:108230000FF010FF384614F03DF8B368064640488A
:10824000A3EB0A0AA8FB00013BA3D3E90023FDF737
:1082500057FF19463F4B08933F4B069340F2793343
:10826000079709933B698046CDE904B31046002384
:108270004FF47A72FDF744FF384B0722A9FB033114
:10828000CDE9028002FB0911E01A65EB01014FF410
:108290007A720023FDF734FF0536F6B2CDE900907F
:1082A00053463246012158460FF044FE10F0FD0FB0
:1082B0000DD0254A2549264840F27A3328F0F1FEB0
:1082C0008BF31188BFF36F8F0323184602DF01225F
:1082D000022110460DB0BDE8F04F0EF075BA002334
:1082E000BDF82C100A98C4F82530A9F80430A777F7
:1082F000C4F81F00918016E7134A194914484FF437
:10830000317328F0CEFE002383F31188BFF36F8F03
:108310000323184602DFDFE695F8273043F04003D9
:1083200085F82730281D1AF0F3FB4FF00108288547
:1083300023E700BFAFF300808D49FD1A070000005E
:1083400000CA9A3BE5260400C4C20500F4BC05003F
:108350005CB60500E92604001D2704008D49FD1ABE
:1083600078B90500000000000538C3B2052B0CD811
:1083700070B580B20D4613F0A5FF044618B190F910
:108380004330002B03DA002070BD0020704790F8C6
:1083900082000F4EC0F3C00100F007001CF002FA8B
:1083A0000C4A00F2B5500721E0FB0621104606A357
:1083B000D3E90023FDF7A4FE20F07F40286020468B
:1083C00070BD00BFAFF300808D49FD1A07000000AB
:1083D00000CA9A3B8C49FD1A2DE9F04F93B0FF2754
:1083E0000B930B1D0A930023CDE90E330546164669
:1083F0008DF837709B463C4698469A46994610AB96
:108400000693594B0593594B03930FAB01930EAB56
:1084100000200093022310930490029033460DF144
:10842000370229460FF09CFE022812D0109BB3B9E8
:10843000FF2C25D03368434522D0002F42D0013F86
:10844000FF24FFB28DF83740D9E7294600200FF00E
:10845000D3FE109B022BF8D0109B002BE8D0444A8F
:10846000444945484FF4EE7328F01BFE002383F384
:108470001188BFF36F8F0323184602DFFF2CD9D179
:108480009DF83700FF282CD011A9FFF76DFF0028B9
:10849000B5D0FF2CDDF83880119B0AD04946404604
:1084A00009930FF0C3FE0A9B03EB0A029042099B5B
:1084B00019D8C1469DF83740D6F80080DDF83CB0A9
:1084C0009A469CE72D492A4A2B484FF4F27328F02C
:1084D000E8FD87F31188BFF36F8F0323184602DF8F
:1084E000ADE7FF2C34D026480721AAFB000301FB8F
:1084F0000A311BA3D3E90023FDF702FE044600B1B5
:108500003E34204AABF57423A3F51073934216D87A
:108510001B480721A9FB000301FB093110A3D3E984
:108520000023FDF7EDFD184BA3FB0B2304EB934455
:108530000B9B044400201C6013B0BDE8F08F0BF1CE
:10854000E87B0BF5D43B09F1FF390BF5A57BDFE7A1
:108550006FF0090013B0BDE8F08F00BFAFF30080EB
:1085600000CA9A3B00000000052A0400092A040002
:1085700010C3050054C305005CB605005CC30500CC
:108580008D49FD1ABFBDF07F83DE1B430000000054
:108590002DE9F043C668476873683D491A68D0F80A
:1085A0000090A7F57423A3F510738B4283B0804627
:1085B00007D907F1E87707F5D43709F1FF3907F54F
:1085C000A57773681169DD8ACDF8049006F1100370
:1085D00001AA0220FFF700FF00284ED10199A1EB6C
:1085E00009031B0237D4084649460FF01FFE034615
:1085F00028480721A3FB000201FB032122A3D3E9A2
:108600000023FDF77DFD34690444002C346109DB4F
:1086100040F2E24305FB03F3A3422FD2E41AA34244
:10862000FCD33461D8F800301A48A3EB0903A3FB4C
:108630000002072101FB032113A3D3E90023FDF767
:108640005FFD154BA3FB0737A0EB9740204430613B
:1086500003B0BDE8F08348460FF0E8FD03460D483F
:108660000721A3FB000201FB032107A3D3E9002399
:10867000FDF746FD3469241AC7E73469002CD1D1CF
:1086800003B0BDE8F08300BF00CA9A3B00000000C1
:10869000BFBDF07F8D49FD1A83DE1B430000000043
:1086A00010B5334C3349002304F1FF3C14F8332058
:1086B000072A02EB820E05D811F83E206FF345120F
:1086C00001F83E201CF833206FF300020CF8332031
:1086D0000133082BEAD1284A284C002313700A786A
:1086E00063F300020A7091F8282063F3000281F816
:1086F000282091F8502063F3000281F8502091F86F
:10870000782063F3000281F8782091F8A02063F3C9
:10871000000281F8A02091F8C82063F3000281F8DC
:10872000C82091F8F02063F3000281F8F02091F85E
:10873000182163F3000281F81821114A9FED0A7B8A
:108740001370104B83ED007B0F4B236028B1BDE805
:1087500010400E490E4830F0BBBABDE810400C483E
:1087600030F0C4BAAFF30080FFFFFFFFFFFFFFFF51
:10877000056C0020C46A0020E9860020D46900202E
:10878000E8860020183A0020A0BB0D00FD3604004A
:10879000E8390020000000002DE9F04F8FB00DF106
:1087A00037010446DFF8E0A0DFF8E0800DF1360085
:1087B00010F0EAFC9DF836309DF837B00B930FF0BF
:1087C00033FDDAF80060A6FB085629A3D3E900239D
:1087D0000027814631462846FDF792FCCDE9077710
:1087E000069420F07F44DAF80400234B0593A0FBA5
:1087F00008011FA3D3E90023FDF782FC1F4B20F0E3
:108800007F40A4FB0331072202FB0411CDE9037072
:10881000E81A66EB01014FF47A720023FDF770FC51
:108820000097CDE901404B460B985A4603210FF0C3
:1088300065FB10F0FD0404D06FF08B000FB0BDE8B5
:10884000F08F0F480F4A002325F0F8F820B9DAF826
:108850000C000FB0BDE8F08F9DF837209DF8360072
:108860000094234603210FF0F5FB6FF07300E5E75A
:108870008D49FD1A07000000793E04008D49FD1A5C
:10888000786C0020447B0B00906C002000CA9A3B5F
:1088900038B50F4D04460FF0C7FCA9680FF0C6FCB1
:1088A000696803460B48B3FBF4F4A1FB00011C44C8
:1088B00005A3D3E90023FDF723FC20F07F40844289
:1088C00094BF0020012038BD8D49FD1A070000002B
:1088D000906C002000CA9A3BF0B5C468636883B00E
:1088E0000546002B64D11EF005F800201EF028F884
:1088F000002108461EF016F80022252108201EF04F
:1089000053F8474B019301A81EF03AF8454940F24D
:108910005B601EF0F1F8237AC3F3420262F30613A0
:10892000204623721CF096FB1BF024FA58BB637A96
:108930009B071FD127682E6838461BF0CFFE0644E0
:108940006A6806F1090101201EF030FA1EF01EFBD4
:10895000204613F021F8811C3246C9B238461BF07C
:10896000CBFE054678BB20461BF052FE88B900209E
:1089700003B0F0BD01201AF057FD4178821C007849
:108980001EF0B4F9D6E7607A10F0030018BF01209A
:10899000F1E7254A2549264840F2294328F081FB82
:1089A00085F31188BFF36F8F0323184602DFDEE7DC
:1089B00093F82C309A0796D01E4821461DF058FF98
:1089C0001EF044F8D3E7184A1B49194840F21143F6
:1089D00028F067FB194B0721A5FB030301FB0531B9
:1089E0000DA3D3E90023FDF78BFB1549024615487B
:1089F00028F057FB002585F31188BFF36F8F032301
:108A0000184602DF104821461DF032FF1EF01EF806
:108A10006FF08B00ACE700BF00CA9A3B000000007B
:108A2000D6BE898E5555550030C7050030B80500B3
:108A30005CB605008948040034B705008D49FD1A6D
:108A4000E0C70500B4C70500294C04000000000081
:108A50002DE9F041C46894F91630002B8CB0C0F2B7
:108A60000581636805460E46002B40F0F480A37D27
:108A70006FF30003A3751DF03DFF00201DF060FFA4
:108A8000002108461DF04EFF0022252108201DF080
:108A90008BFF012010F07EFC0746002800F0CC8000
:108AA00007F11C001DF0AAFF8B4B0B930BA81DF0C8
:108AB00067FF8A4940F25B601EF01EF8A07DC0F39C
:108AC000410025301BF02AFE854821461DF0D0FECE
:108AD000A37D9B0603D46368002B00F0AA80962038
:108AE0001EF058F900231A46194618461EF06AF877
:108AF0001BF040F9002838D1A37D13F0180F5BD18B
:108B0000D4F800802F6840461BF0E8FD07446A68EF
:108B100007F1090100201EF049F91EF037FA1EF096
:108B2000C1F8204613F08CF9011DC9B240463A46FF
:108B30001BF0E2FD8046002840F09F8016B9636A72
:108B4000002B52D1636843B1664B01220221002001
:108B50009D600DF06FFE002837D120461BF058FDB8
:108B6000D0B900200CB0BDE8F081A07DC0F3C000FA
:108B70001AF05AFC07460DF12B001AF063FF7978C2
:108B80008046BA1C38781EF0B1F89DF82B00002200
:108B900041461EF0C9FAB3E7534A5449544840F2DB
:108BA0000B2328F07EFA002383F31188BFF36F8F25
:108BB0000323184602DFD4E701201AF035FC417880
:108BC000821C00781EF092F89AE7474A49494848C3
:108BD00040F2062328F065FA002383F31188BFF3DF
:108BE0006F8F0323184602DFB7E7434A0792434AD1
:108BF000059240F2F31200930892CDE90366CDE9A5
:108C0000016606943B46032231460FF077F910F0D7
:108C1000FD0F97D0344A3A4935484FF4FA7328F09B
:108C200040FA86F31188BFF36F8F0323184602DFE3
:108C300088E71EF027F85BE72B4A32492C484FF4AF
:108C4000C57328F02EFA87F31188BFF36F8F0323C3
:108C5000184602DF24E7636893F82C30D90705D45F
:108C6000636893F82C309A077FF501AF26482146B8
:108C70001DF0FEFD1DF0EAFE73E71B4A23491C4868
:108C800040F2E51328F00DFA214B0721A8FB03035E
:108C900001FB08310EA3D3E90023FDF731FA1D498A
:108CA00002461D4828F0FDF9002585F31188BFF321
:108CB0006F8F0323184602DF184821461DF0D8FDA8
:108CC0001DF0C4FE6FF08B004CE700BFAFF30080D7
:108CD00000CA9A3B00000000D6BE898E555555004B
:108CE000C18D02001C090020ECC7050030B805004A
:108CF0005CB6050048B70500C55704006D58040070
:108D000058BA05007CC705008948040034B705003F
:108D10008D49FD1A38C80500B4C705009D560400EA
:108D200038B504461CF068FCA37DA27DC3F3410363
:108D3000013303F00303032B08BF002363F3420254
:108D400014BF03F125002520A2751BF0E7FC636822
:108D50000BB123694BB90FF067FAC11C00201EF05C
:108D600099F8BDE838401EF011B91EF0C1F805466B
:108D70000FF05AFAC11C00201EF08CF81EF006F904
:108D80001EF0B6F829460FF051FA0B4A03460721A8
:108D9000A0FB020201FB032105A3D3E90023FDF799
:108DA000AFF923691B1A236138BD00BFAFF3008000
:108DB00000CA9A3B000000008D49FD1A0000000027
:108DC0002DE9F0478AB004461DF080FEC0B250B9CC
:108DD0001BF0FEFCC64821461DF04AFD0AB0BDE866
:108DE000F0471DF033BE1DF093FE05461DF0B2FFA7
:108DF00007461DF0B9FF81461EF0F0F906461EF049
:108E0000CFF982461DF068FFEDB280461DF048FFA5
:108E10001BF0DEFC002DDDD0012010F0BBFA054672
:108E2000002800F0528117F0FF07F6B240F0E8800A
:108E3000002E40F0DF804FF0FF093A464B463146A6
:108E400020461CF00FFE0028C4D02A7F6168002352
:108E50008DF823305FFA88F702F00F03002900F045
:108E6000F180616891F82C10880700F1EB80072BE6
:108E7000B0D0A17D090740F14781002B40F0C980A7
:108E80006B7F063B1F2BA5D8042010F083FA002827
:108E9000A0D01EF083F8636A074643B9238C40F2E2
:108EA000712202FB03F3B0FBF3F203FB120723680A
:108EB0001A69904B0721A2FB030301FB02318AA32D
:108EC000D3E90023FDF71CF96FF4427C00EB0C039F
:108ED0001F3B62EB0202BB4272F10002FFF47AAF69
:108EE0001DF0D0FE484663681AF092FDE37D9907B5
:108EF000804640F1E481002800F0E18182460127AC
:108F00001DF014FECDE9027A09AB049305F11E03AE
:108F100001932B7FC3F38013014607460093002281
:108F2000012320461CF0B8FD38461DF06DFD1DF0F4
:108F3000B9FD002840F0C9816F4821461DF098FC1A
:108F4000626892F82C3043F0010382F82C30A37D44
:108F500043F08003A37510F037FA172202714FF621
:108F6000FF72C28095F81CC082463B46CCF3401C81
:108F700000F11C0207F1200E1D6858689968DF682F
:108F8000D7601033734515605060916002F1100294
:108F9000F2D11B6813609AF81C30CAF808406CF3D1
:108FA00045138AF81C301DF0A3FF002ECAF81000EC
:108FB000099BCAF8143008BF4FF0FF098AF81990CE
:108FC000E37D13F0020303D0B8F1000318BF0123BF
:108FD0009AF81A2063F300028AF81A2010F0F4F9C4
:108FE000CAF80C00DAF8000051460AB0BDE8F047B4
:108FF00010F014BA5FFA8AF01AF0A0FD81461CE75F
:10900000A07D5FFA89F1C0F3C0001AF025FD81460A
:1090100013E7012B40F088806A7F0C2A7FF4DAAED8
:109020002A7FCDF80090194600230193D20905F15B
:10903000240320461CF064FC00287FF425AF2B7F1E
:1090400003F00F03002B6FD16B7F052B7FF6C2AEB1
:10905000252B3FF6BFAEA27D02F02102202A09D1C6
:109060006268002A00F0C080052B7FF6B3AE252B86
:109070003FF6B0AE63682BB12B7F03F00F03072BD5
:109080007FF4A8AE03209DF8238010F083F90546F5
:1090900000283FF49FAE10F097F94FF6FF73EB8076
:1090A00005232B71002F3BD17F20AB7E2876002E2D
:1090B00008BF4FF0FF0968F34103286885F819904D
:1090C000AB76294610F0AAF984E60C4A0C490D4803
:1090D00040F2C72327F0E5FF85F31188BFF36F8FB8
:1090E0000323184602DF9EE600CA9A3B00000000F8
:1090F000B55604008D49FD1AB5580400ECC70500AB
:109100007CC705005CB60500B9F1FF0F8DF824900F
:10911000C2F380184BD0227E91453FF4AEAE91E76A
:109120001DF0CAFDC0B2C0E7062B8DD04521D94045
:1091300011F0010139D1012B10D16B7F0C2B7FF481
:1091400049AE2A7FCDF800900DF123030193D20997
:1091500005F1240320461CF0D3FB08BB2B7F03F052
:109160000F03042B7FF436AE6B7F063B1F2B3FF6BD
:1091700031AEA37DDB077FF52DAE1DF0D7FC2B7F35
:109180000278C3F38013B3EBD21F7FF423AE083011
:10919000062205F11E0130F0A6F900287FF41AAE70
:1091A0006B7F002B7FF466AF14E66B7F5CE705F105
:1091B0001E0A09AA514640461AF07EFD00283FF4D7
:1091C0003EAFE37D03F0010343457FF438AF5146E2
:1091D000062204F1080030F086F900287FF42FAF52
:1091E0002B7F03F00F0348E6962007921DF0D2FD77
:1091F000079A10461DF09EFC032010F0CBF8804625
:1092000000283FF4E7AD10F0DFF84FF6FF73A8F841
:109210000630052388F80430002F66D17F23002E06
:1092200088F8183014BF4B46FF2388F8193098F897
:109230001A30D8F800006FF3410388F81A3041461D
:1092400010F0ECF81DF072FC06460322337862F34E
:10925000030333702B7F3278C3F3801363F3C71299
:109260000C233270484673701AF0D2FBE27D9207ED
:109270003FD500283DD03178324641F0400102F818
:10928000021B0168C6F8021083889380D5F81E304F
:10929000B3606B8CB38130461DF0B6FB1DF002FC51
:1092A000002837D11DF072FEA37D224843F0010350
:1092B0002146A3750AB0BDE8F0471DF0D9BAA77DD5
:1092C00004F1190AC7F380171AE61B4A1B491C4808
:1092D00040F2AF4327F0E5FE002383F31188BFF38C
:1092E0006F8F0323184602DF26E61DF0E5FCC3B2AC
:1092F00095E7A37D3278C3F3801363F38612334678
:1093000003F8022BD4F81920C6F80220B4F81D2067
:109310009A80BBE7084A0949094840F2335327F0CD
:10932000C0FE002383F31188BFF36F8F0323184619
:1093300002DFB7E7C9560400ECC7050084C7050083
:109340005CB60500000000002DE9F041C468A28A67
:109350004FF6FF739A4282B000F0DF8005461CF0A2
:10936000AFFC2B89628B208CA3831A4492B21044E9
:1093700094F82730E28380B2411C21845E064FF0CE
:109380000001618304F1220100F1A18003F03F009C
:109390000B4694F82810009004F1290019F070FB96
:1093A0000646D4E90C31A28B02FB0333A26B1344B3
:1093B000E26B8B4294BFD21852188A4228BF0A46E9
:1093C000E263616C226C94F867301144616494F834
:1093D0007E2094F82C10C3F3020363F3061112F0FD
:1093E00004024FF0000384F82C10A363236478D0A8
:1093F0001DF080FA00201DF0A3FA201D1DF0C0FA18
:109400002389A17A40F25B6043EA01411DF074FBBD
:1094100030461BF083F9214659481DF029FAA089EE
:109420001DF0B8FC94F8662094F86700C2F3C003FE
:10943000002102F0070200F007001DF0C3FB2046E8
:109440001CF0FEFC27682E6838461BF047F90644DE
:109450006A6806F1090100201DF0A8FC80461DF095
:1094600069FD00201DF080FDE36B94F8670003F1B7
:109470002F02636C00F00700012103EB42051DF091
:10948000D1FA4544054494F8670000F0070002282B
:1094900025D004280CBF4FF4BC73282301211D44A0
:1094A0001DF0C2FA28441DF037FDA18A053132466D
:1094B000C9B238461BF020F90546002834D12046B1
:1094C0001BF0A6F8D0B9002002B0BDE8F0810A4632
:1094D00003F03F03218D19F01FFB064661E71823B7
:1094E000DCE7D4E91A010DF037F9002880D194F8AF
:1094F0007E3043F0040384F87E3079E7214A224924
:1095000022484FF4B07327F0CCFD85F31188BFF3E8
:109510006F8F0323184602DFD5E71D4821461DF053
:10952000A7F91DF093FACEE7164A1A4917484FF4E7
:10953000AB7327F0B6FD184B0721A5FB030301FB16
:1095400005310DA3D3E90023FCF7DAFD13490246E8
:10955000134827F0A6FD002585F31188BFF36F8F10
:109560000323184602DF0F4821461DF081F91DF044
:109570006DFA6FF08B00A7E700CA9A3B000000006D
:10958000B9600400CCC8050030B805005CB6050021
:109590008948040034B705008D49FD1A20C905002B
:1095A000B4C7050065480400F0B5C468A28A4FF648
:1095B000FF739A4285B000F08F8005461CF080FB57
:1095C0002B89628B208CA3831A4492B2104494F8A6
:1095D0002730E28380B2411C21845E064FF00001F7
:1095E000618304F1220160D403F03F000B4694F83C
:1095F0002810009004F1290019F042FA064620468E
:1096000003A91CF0FBFC039B94F87E101A7861F30D
:10961000C3021A70039A94F87E301178C3F34003A2
:1096200063F3820111701DF065F900201DF088F9C7
:10963000201D1DF0A5F92389A17A40F25B6043EA61
:1096400001411DF059FA30461BF068F80399204695
:109650001CF0A8FC21463A481DF00AF9E0891DF0EB
:1096600099FB94F8670000F007001DF063FA276883
:109670002E6838461BF032F806446A6806F1090184
:1096800001201DF093FB1DF081FCA18A05313246BB
:10969000C9B238461BF030F8054620BB20461AF008
:1096A000B7FF50B9002005B0F0BD0A4603F03F03F4
:1096B000218D19F031FA0646A1E7224A22492348B2
:1096C0004FF4827327F0EDFC85F31188BFF36F8FA1
:1096D0000323184602DFE5E71D4821461DF0C8F8C0
:1096E0001DF0B4F9DEE7174A1A491848FA2327F0A3
:1096F000D8FC194B0721A5FB030301FB05310EA381
:10970000D3E90023FCF7FCFC14490246144827F077
:10971000C8FC002585F31188BFF36F8F032318461B
:1097200002DF104821461DF0A3F81DF08FF96FF0FD
:109730008B00B8E7AFF3008000CA9A3B000000003E
:10974000D95E04002CC9050030B805005CB60500E0
:109750008948040034B705008D49FD1A7CC905000D
:10976000B4C705006548040001482DF07BB800BF70
:10977000AC9C0500012B07B50FD112780848012ACF
:1097800014BF002257228DF8072000210DF1070297
:109790002CF0DBFF03B05DF804FB6FF08500F9E708
:1097A000AC9C0500012B13B5144611D10A480DF1EC
:1097B000070200212CF0EEFF002807DB9DF80730A0
:1097C000A3F15702534253412370002002B010BD51
:1097D0006FF08500FAE700BFAC9C0500014824F05B
:1097E00007BB00BFE002002007B52FF0FEFB4FF4DF
:1097F0007A72A0FB020302FB0131C00B074A40EA68
:109800004140106000234FF400420548CDE9002399
:1098100025F0A8F9002003B05DF804FB883E002085
:10982000280B0020014B187800F01EBBA0850020FB
:10983000044B1A78824202D01870FFF7F3BF002061
:10984000704700BFA085002008B52FF0CEFB4FF475
:109850007A72A0FB020302FB0131084AC30B1268B3
:1098600043EA41439B1A47F23052934204DDBDE87C
:1098700008400120FFF7DCBF08BD00BF883E002084
:1098800008B52FF0B2FB4FF47A72A0FB020302FB83
:109890000131C00B044A40EA41401060BDE8084075
:1098A0000020FFF7C5BF00BF883E0020014B18789D
:1098B000704700BFA0850020F8B5044610B9002508
:1098C0002846F8BD0378002BF9D00F4E0F4FBE424B
:1098D0000FD30D4EBE42F2D230682EF027FF30B1CA
:1098E000356821462868FCF725FC0028E8D00436B6
:1098F000F0E730682EF01AFF18B135682B68A342E4
:10990000DED00436E3E700BFF4F205001CF30500E7
:1099100070B5194C194D8CB00022002303A92046C4
:1099200023F0F6FE08B10CB070BD2B68059E586898
:10993000DDE9031226F0DBFC0028EDDBFF238DF8C8
:109940001830B6FA86F35B0907908DF820302FF0B7
:109950004CFB4FF47A72A0FB020302FB0131C00BF7
:1099600040EA4140C90B8DE8030006ABCDE90A018E
:109970000FCB00F093FACFE7600C0020543F00209B
:109980001FB50A4C2468A46884420DD183F00103FA
:10999000CDE90112039306480022002301A923F018
:1099A00059FE044824F024FA04B010BD543F0020AE
:1099B000600C0020443F00201FB50023CDE9023396
:1099C000044B8DF80C0001A8019326F0C0FC05B0F3
:1099D0005DF804FB24A505000268034B9A420CBF06
:1099E00008300020704700BF24A50500014B03602C
:1099F0002E2070478C3E0020044B1A68044B9A427C
:109A000014BF6FF012000020704700BF543F0020C9
:109A100010A5050038B5044628B3144D2B688342C1
:109A20001FD02BB1986818B183685B6803B1984761
:109A30000F49104B8C4214BFED2100212E22002033
:109A400026F06FFC00280DDBA0682C6048B183680D
:109A500009491B6898472B68986883689B6803B11D
:109A60009847002038BD6FF01200FBE7543F0020FC
:109A700010A505008C3E00208199020038B50546EE
:109A800048B90648FFF7C6FF041E02DB2846FFF769
:109A900093FF204638BD6FF01504FAE710A50500C6
:109AA000F7B50C4615460D4901AA1E4628F0DAF80E
:109AB00068B1019B6BB9012C0DD1094F2246394683
:109AC0003046A847002802DD3878FFF7D7FF03B0FB
:109AD000F0BD0020FBE76FF01500F8E797D7050011
:109AE000BC0A00200148FFF795BF00BF10A5050084
:109AF00008B5074907482FF08FF8074A002342F8B6
:109B0000043B01332E2BFAD1BDE80840FFF7EABF32
:109B100011990200443F00208C3E002030B51D4CBE
:109B200004EB00148FB0606883684021DB689847BD
:109B300068BB04AD049068606189606883682A46E8
:109B40001B69984718BB95E803000123069307ABF0
:109B500083E803006389ADF824302FF046FA4FF410
:109B60007A75A0FB053205FB0121DB0B43EA41437B
:109B7000C90BCDE90A31237B8DF830300EAB13E9E8
:109B80000F008DE80F0006AB0FCB00F0ADF90FB062
:109B900030BD00BF0003002010B5134CBFF35B8F36
:109BA00054E8002F22F0010144E800100028F7D10A
:109BB000BFF35B8FD20702D50020FFF7AFFFBFF3E3
:109BC0005B8F54E8003F23F0020244E800210029A3
:109BD000F7D1BFF35B8F9B0704D5BDE81040012090
:109BE000FFF79CBF10BD00BF583F0020064901EBA6
:109BF0000012506830B183689B68114608310BB180
:109C0000024A1847704700BF00030020119C020061
:109C100010B5104C0C1B102C1BD824112FF0B6F8CB
:109C200090B1BFF35B8F01230B4AA34052E8000FB2
:109C3000184342E800010029F8D1BFF35B8F0748C1
:109C4000BDE8104024F0D4B82046BDE81040FFF72E
:109C500065BF10BD08030020583F0020F00200201F
:109C600002289ABF024B03EB40000020704700BF60
:109C7000B80A0020F8B50F4D0F4E761B07460C466C
:109C800005EBC105C6F3C706A64201DC00200CE0C7
:109C90002A683B689A4209D13C716B6838461B6858
:109CA000984718B1431E012BF0D9F8BD013408358F
:109CB000EAE700BFF4E205004CE305000D4B0E4A55
:109CC000D21A70B4C2F3C7020024944203DB6FF0CF
:109CD000150070BC70471E680568AE4206D15D680D
:109CE0008D4203D1E1B270BCFFF7C4BF0134083329
:109CF000EBE700BFF4E205004CE3050000B58BB0D4
:109D0000064B074A2821684624F0B4FF0549012282
:109D1000684603F0CBFE0BB05DF804FBDFD705000F
:109D2000E9D70500A18500202DE9F84347680446DE
:109D300000254FF001087B68AB420DD8214922482D
:109D40002EF0C6FFA3681B680BB1204698473989DF
:109D500039BB0020BDE8F8833A6802EBC50352F82E
:109D600035001979DB88D0F810C0D0F80890DCF8FD
:109D70000060DA0754BF43F4B01383F4D01323F424
:109D8000801208FA01FEDB074CBF46EA0E0626EAFF
:109D90000E06CCF80060D9F80030984770B901354C
:109DA000C9E740F2E7304FF47A72002300EBC1308C
:109DB0000021FCF7A5F92FF09FF8CAE76FF0040027
:109DC000C8E700BFFD9C0200A80F002008B5074BA4
:109DD0005A784AB901221A7005480022002324F05B
:109DE00075F8044826F0C9FA002008BDA1850020B6
:109DF000A80F0020849C050008B54FF4F012002342
:109E0000024824F097F800EAE07008BDA80F00208F
:109E1000F7B50C461646114901AA1F4627F022FF46
:109E2000B0B1019BA3B9012C15D10D4D2246294695
:109E30003846B047002806DB2B780A486C7023B1FF
:109E400026F09BFA002003B0F0BD26F0B2FAF9E745
:109E50006FF00100F7E76FF01500F4E7DFD70500BA
:109E6000A1850020849C05001FB50023CDE90233A5
:109E7000044B8DF80C0001A8019326F068FA05B098
:109E80005DF804FB48A505000268034B9A420CBF2D
:109E900008300020704700BF48A5050084B030B5E9
:109EA00089B00CAC84E80F00002301930CAD084B83
:109EB00000930FCD02AC0FC495E8030084E80300C3
:109EC000684626F044FA09B0BDE8304004B0704757
:109ED0004CA505000268034B9A420CBF08300020D5
:109EE000704700BF4CA5050084B030B58BB00EACF8
:109EF00084E80F00002301930EAD084B00930FCDB3
:109F000002AC0FC495E80F0084E80F00684626F005
:109F10001EFA0BB0BDE8304004B0704750A50500F4
:109F20000268034B9A420CBF08300020704700BF04
:109F300050A505001FB50023CDE90233044B8DF871
:109F40000C0001A8019326F002FA05B05DF804FBAD
:109F500054A5050082B038B504A981E80C00054677
:109F6000114823F0C9F90446A0B16B68012B0CD04D
:109F7000022B05D0A3B9BDE8384002B026F05FBA85
:109F800026F064FA00282046F5DCBDE8384002B02F
:109F900026F04EBA6FF00400BDE8384002B07047BA
:109FA0006FF08500F8E700BFDFD7050082B010B57D
:109FB00002A981E80C0004460B4823F09DF978B112
:109FC0006368022B04D00020BDE8104002B0704747
:109FD00026F03CFA0028CCBF002001206060F2E7A8
:109FE0006FF00400F0E700BFDFD705000D4A52F81C
:109FF0002030013342F820300B4A0123117883408E
:10A000000B430A490978DBB2137023EA01030849BC
:10A01000084A097850780B43181A537018BF01206A
:10A02000704700BF5C3F0020A5850020A38500206D
:10A03000A4850020CA0A002010B5114A52F8203029
:10A04000002B19DD013B42F820300E4A2BB9137862
:10A050000121814023EA010313700B480B4B047864
:10A0600010780B4A5978127820EA0400104358708F
:10A07000401A18BF012010BD6FF01500FBE700BFAC
:10A080005C3F0020A5850020A3850020CA0A00208F
:10A09000A4850020044A012312788340D8B21340DB
:10A0A0001B1A584258417047A585002010B5084B2F
:10A0B000084A1870084B51781C78084B1B7823EA23
:10A0C000040318435070401A18BF012010BD00BF90
:10A0D000A4850020CA0A0020A3850020A5850020B1
:10A0E000074B00221A70074B074A1978074B507824
:10A0F0001B7823EA0103181A537018BF0120704718
:10A10000A4850020A3850020CA0A0020A585002080
:10A11000A0F1E003072B03D82030C0B2FFF766BFE1
:10A12000064B062213F8011F19B1013AFAD100209B
:10A13000704718700028F8D0F9E700BFCC0A00205B
:10A14000A0F1E003072B10B405D820305DF8044BD4
:10A15000C0B2FFF771BF0023064A194612F8014F3B
:10A160000133A04208BF1170062BF7D100205DF823
:10A17000044B7047CC0A0020A0F1E003072B03D862
:10A180002030C0B2FFF786BF064A002312F8011F35
:10A19000884204D00133062BF8D1002070470120FB
:10A1A000704700BFCC0A0020024B00221A605A60A0
:10A1B000704700BFCB0A0020B0F5805F10B510D209
:10A1C0000949002301EB4302B2F8014024B10133F5
:10A1D000062BF7D1002010BDA2F801000028F6D010
:10A1E000F8E76FF08500F6E7BD0A002030B50023E0
:10A1F000074C194604EB43020133B2F80150854283
:10A2000004BF51709170062BF4D1002030BD00BF07
:10A21000BD0A0020024B00221A605A609A60704703
:10A22000BE0A0020074A002302EB4301B1F80110E7
:10A23000814204D00133062BF6D100207047012063
:10A24000704700BFBD0A002000487047CA0A0020BE
:10A2500000487047BD0A00202DE9F0410B4E3378CD
:10A2600083B10B4CDFF82C80002542F20F7720469B
:10A27000414601352EF02CFD0A2D44F8207C04F1D6
:10A280005804F4D100203070BDE8F081D30A0020DA
:10A29000381600209706050030B5C269037ED17DCF
:10A2A00091B0044609B1032B39D0023B012B517DFB
:10A2B00007D8002933D1204611B0BDE8304026F040
:10A2C000C1B921B1937D13B9204626F05DF90AADDD
:10A2D0001822002128462EF07CFF23798DF8383093
:10A2E0000023CDE907330993E36922689B6807934C
:10A2F000D4E90401E36808930A4B0B92CDE90C0101
:10A30000C3E902011A600123049310AB13E90F00A3
:10A310008DE80F0007A895E80C0025F066FF11B046
:10A3200030BD00BF000000200B4A30B500230446BA
:10A33000282000FB03F18D18515C41B90FCC0FC5EB
:10A340000FCC0FC594E8030085E8030030BD01334E
:10A35000282BEED1FAE700BFD80F00202DE9F843F3
:10A36000027E0346002A6ED13B4D2A6882426AD1A2
:10A37000D269547D24B119B9BDE8F84326F062B919
:10A38000107D032828D8DFE800F0020E1F60013995
:10A39000042921D8DFE801F01E0320051E00022158
:10A3A00019E0032117E00139042915D801A050F85C
:10A3B00021F000BFD5A30200D9A302009FA3020091
:10A3C000A3A30200D5A302000429EAD001F0FB01F7
:10A3D000012901D101211976197EA1B3D069002884
:10A3E0000DDD5C6D611C0AD01C32002152F8046F37
:10A3F000A64204D001318842F8D101221A76002207
:10A4000018462A60FFF748FF2C68E4B9134EDFF8BE
:10A410005080A14616F8087CAFB12B6806F8089C5E
:10A4200023B14FF4A47000212EF066FD012F01D05E
:10A43000022F03D141463046FFF740FC0134282C5F
:10A4400006F12806E6D1BDE8F8830229A7D0BFD9D6
:10A4500004390129BED9BFE77C3F0020E00F00206E
:10A46000D8A5050082B02DE9F0412F4E06A981E85C
:10A470000C000024582202FB04F0851931588B424D
:10A480004AD1203030442EF031FCEB691968D5E90F
:10A4900004238A1843EBE17308998A42099A93418D
:10A4A000804603DA04212846FFF758FF582707FBA8
:10A4B000046701212846FFF751FFFB69DB7D53B19B
:10A4C0003B7E032B07D1284626F086F80123284639
:10A4D0003B76FFF7E1FE284626F07EF8582303FB83
:10A4E0000463DB695A7D22B19B7D13B1284626F0B7
:10A4F0004BF818F1770F4FF058031DBF5C4342F241
:10A500000F72331903FB046317BF3251012200227B
:10A510001A7683F8502002E001340A2CABD1BDE852
:10A52000F041002002B070471816002082B02DE9DB
:10A53000F047044608A9006881E80C0025F0FFFDFB
:10A540003B4B1D687DB9D4E901C23A4F4FF0580E1C
:10A5500042F20F780EFB05F6F419B959414507D0C0
:10A5600001350A2DF6D1BDE8F047002002B0704752
:10A57000D0F804809DF83010DDF82490DFF8B8E0C2
:10A580002171C4E902C2DDE90AC0C4E904C00021A6
:10A590004FF0FF3247F8069021766265C4F81C80C0
:10A5A000DEE902211C60D8F8103013EB020A41EBFF
:10A5B000E373D44570EB03030CDBDEF80030994500
:10A5C0000CD1D8F80C309A1841EBE371944570EB3C
:10A5D000010103DA05212046FFF7C0FE20460021D5
:10A5E000FFF7BCFE582303FB0575D8F80040296926
:10A5F0000C442EF0FAFC4FF47A72A0FB020302FB2B
:10A600000131C30B43EA4143E11A21EAE17140F20F
:10A61000E7304FF47A72002300EBC1304914FBF7A6
:10A620006FFD203602460B46B81923F04FFC9AE71F
:10A630007C3F002018160020000000202DE9F0418A
:10A640008AB00446FFF746FC00286CD02046FFF78E
:10A6500041FC524D47680446002642F20F782B68B1
:10A660009F420CD043450AD0EB69DB7D3BB12B7E8A
:10A67000032B04D102232B762846FFF70DFE01366B
:10A680000A2E05F15805EAD1454D286808B9002081
:10A690002CE0C369227A197E914204D0426D0132C6
:10A6A00004BF62684265016862689142EFD0196830
:10A6B000D0E904238A1843EBE173D4E90461B24280
:10A6C0008B4116DB237ADBB10123214602A88DF8EA
:10A6D000003025F08AFE6846FFF726FE217A2868BA
:10A6E000C1F10301C9B2FFF739FE02200AB0BDE88B
:10A6F000F0810421FFF732FE2B68002BC7D0E1E781
:10A700006068284A11780029C1D0012905D1516912
:10A71000884202D1117E0029D6D10133282B02F1C3
:10A720002802EFD1B3E7204600F0DEFB0028DDD0A1
:10A73000204600F0D9FB837A01469BB14368E03B99
:10A74000072B02D80378072B0CD0174BD1E9040252
:10A75000D3E9025485429441BEBFC3E902024FF0DF
:10A7600000441C600E4B18680028BFD04B68E03BCB
:10A77000072B8CD80B78072B89D1C3695B7D13B16C
:10A78000007E0028B2D002A802248DF8004026F0F6
:10A790001DF96846FFF7C8FDA7E700BF181600209F
:10A7A0007C3F0020D80F00200000002082B0F8B5C8
:10A7B0000E9E006806A981E80C00154625F0BFFC36
:10A7C000079B3168046972682E3B9B0021B35819BE
:10A7D0004FF4B47754F8306004EBC0003144406863
:10A7E000104480EAE076114AA6EBE0769642C1BFBB
:10A7F0000F4E90FBF6F2891806FB12000C9A5E19B8
:10A800001288B7FBF2F791FBF7F207FB121144F83D
:10A81000361004EBC60670602B441033002044F859
:10A820002320BDE8F84002B0704700BF3F420F0050
:10A8300040420F0030B593B0182200210CA82EF032
:10A84000C8FC254D06AC00220CA90023284622F0A6
:10A850005FFF014600283DD1182220462EF0B9FCAA
:10A860000C9B07932EF0C1FB4FF47A72A0FB0203FE
:10A8700002FB01319DF834308DF82830C00B9DF873
:10A88000443040EA4140C90B13F00102CDE9080110
:10A8900018BF0122049208AB0FCB8DE80F000EA861
:10A8A00094E80C0025F0A1FC119B012BCBD9C3F33C
:10A8B0005E044FF4004540F2E73000214FF47A7215
:10A8C0000023E5FB0401FBF71BFC02460B46034893
:10A8D00023F0FCFA13B030BD900C002010000020D3
:10A8E00030B58BB001AC84E80E0042680492027C63
:10A8F0008DF8142094E8070006AD85E80B000F9A48
:10A900009DF8383043EA42030993094800220023A6
:10A9100004A922F09FFE002804DB06482EF0E4F98B
:10A9200010B100200BB030BD0248FFF783FFF8E7FD
:10A93000900C00201000002010B50D4B1C78012C4D
:10A9400004D0022C0BD00024204610BD01F0FAFDEB
:10A950000028F9D100F07AFC4400E4B2F4E700F0FA
:10A9600075FC0028F0D1BDE8104001F0EBBD00BF40
:10A97000D40A002008B50B4B1B78012B07D0022B03
:10A9800009D0002B0CBF00206FF0850008BDBDE88A
:10A99000084026F095B9FFF757FCBDE808400130A4
:10A9A00000F064BEE03F002008B50B4B1B78012B84
:10A9B00007D0022B09D0002B0CBF00206FF08500C0
:10A9C00008BDBDE8084026F083B9FFF741FCBDE8AB
:10A9D0000840013000F070BEE03F0020024903480B
:10A9E000012203F063B800BFD40A0020C8D80500D4
:10A9F000F7B50C4615461B49002207461E4627F0B0
:10AA000031F9024648B1012C29D117492246304676
:10AA1000A84700EAE07003B0F0BD1449384627F0BB
:10AA200021F90028F7D0012C19D122460DF1070198
:10AA30003046A8470028EEDB9DF807300A4D0C4849
:10AA4000012B0CBF022301232B7027F004F90028EF
:10AA5000E1D122462946074803F028F8DBE76FF0EA
:10AA60001500D8E7D2D80500D40A0020E7D80500A1
:10AA7000DDD80500C8D8050013B5094909482EF0EE
:10AA800027F9FFF759FF6C460146204625F0B2FE34
:10AA900094E80300044B83E80300002002B010BDDB
:10AAA000DDA9020088190020E03F002082B00DF1EE
:10AAB000080C0CE9030019469DF80030012B1046E4
:10AAC00006D0022B06D053B9064A02B024F0D2B801
:10AAD000054AFAE7019B054A02B024F0CBB8044AC4
:10AAE000F3E700BFF1D80500F6D80500FAD8050055
:10AAF00001D9050030B589B0FFF71EFF01AD0F4C3D
:10AB00000146284625F076FE94E80C0095E80300FF
:10AB100025F07EFE80B925F0A3FE95E803000A2308
:10AB200005AA84E80300FFF7C1FF94E8030003AB24
:10AB300083E8030000F022F809B030BDE03F0020B8
:10AB400008B5074B1A78824208D018704FF4F012FB
:10AB50000023044823F0EEF9FFF7CCFF002008BDE6
:10AB6000D40A002088190020034B1B78012B14BF46
:10AB700001200220FFF7E4BFD40A00207FB56B4616
:10AB800083E8030093E80300002206AB03E9030017
:10AB9000039202A8034A029225F0D9FB07B05DF8A0
:10ABA00004FB00BF40A60500F0B5032885B05BD8C4
:10ABB00098B911B9002005B0F0BD2D4C2D4B266879
:10ABC0001D6846F001032360002A4BD19E4214D138
:10ABD000284B1B68AB4210D1ECE7264B1D687ABBB3
:10ABE00039BBC540EB07E5D4214D01232C688340D8
:10ABF00024EA03061C422E60DCD08DF800008DF89C
:10AC000001108DF802202EF0F0F94FF47A72A0FBBB
:10AC1000020302FB0131C00B40EA4140C90BCDE900
:10AC2000020104AB13E90F0005B0BDE8F04000F0ED
:10AC300029B90F4C01232668834033432360C5E7BD
:10AC40000B4F01243E68844021B146EA04033B6077
:10AC50002C4304E026EA04033B6025EA0404054F84
:10AC60003C60B3E70124F3E76FF01500A3E700BFF2
:10AC7000A0400020A4400020014B196825F050BEE0
:10AC8000A04000202D2937B504460D4602D90020EA
:10AC900003B030BD0328FAD801A8FEF7A7FE0028AC
:10ACA000F5DB8542F3DA019B53F825302D2BEED8E6
:10ACB0004FF40A7202FB04F00C2202FB0300014B6A
:10ACC0001844E5E74CA605002DE9F74FDDE90CAB8C
:10ACD000DFF84C9007460C4615461AB10F4B1B681F
:10ACE00049F8213003265FFA86F859F824104046C7
:10ACF00025F016FE30B9013EF5D26FF0850003B0A5
:10AD0000BDE8F08FCDE900AB2B46224641463846E0
:10AD100025F018FE0028F2DDEDE700BFA04000207E
:10AD2000E83F00202DE9F04F2DED028B9FB0544EEF
:10AD3000CDE90A129DED2A8B00EB4003804606EB1D
:10AD4000830603254FF0000A00F12E090DF1680B70
:10AD5000B06C25F0F4F9002800F08780002340460D
:10AD6000CDE91033FEF77CFFCDE90C598DED0E8B4C
:10AD70000DF1300C0446BCE80F0012AF0FC79CE881
:10AD8000030087E80300CDE912598DED148B0DF116
:10AD9000480EBEE80F000DF1600CACE80F0097E81C
:10ADA00003008CE80300B06C25F0C9F900285CD0E2
:10ADB00083681F69002F58D006F1480309930A9B46
:10ADC00006930B9BCDE904439BE80F008DE80F0031
:10ADD000DDE918230998B847002846DBBAF1000FCF
:10ADE0002FD1E8B2FFF748FF80F00107FFB2CDE9AD
:10ADF0000C598DED0E8B0DF1300CBCE80F0012AC30
:10AE00000FC49CE80300FFB284E80300CDE91259A7
:10AE10008DED148B0DF1480EBEE80F000DF1600CA6
:10AE2000ACE80F0094E803008CE80300B06C25F058
:10AE300086F940B96FF015001FB0BDEC028BBDE87C
:10AE4000F08F0127D3E783685C6914B96FF0850040
:10AE5000F2E704979BE80F008DE80F00DDE9182367
:10AE60000998A047002808D0E6DB013D6B1CA6F13D
:10AE700018067FF46DAF0020DEE74FF0010AF4E71B
:10AE80004003002010B58AB06C4684E80F00002310
:10AE90000593064B049394E80F000AAC04E90F00F5
:10AEA00004A825F054FA0AB010BD00BFECAE0500AE
:10AEB00084B030B589B00CAC84E80F000023019356
:10AEC0000CAD084B00930FCD02AC0FC495E8030006
:10AED00084E80300684625F03AFA09B0BDE830403E
:10AEE00004B07047F4AE05000268034B9A420CBFF1
:10AEF00008300020704700BFF4AE05007FB56B46F8
:10AF000083E8030093E80300002206AB03E9030093
:10AF1000039202A8034A029225F019FA07B05DF8DD
:10AF200004FB00BFF8AE0500074B1A78074B82B050
:10AF3000162102FB013301938DF8002002AB13E9C7
:10AF4000030002B0FFF7DABFAD850020AE85002018
:10AF500002490348012202F0A9BD00BFAD850020CF
:10AF60009FD9050008B5002004F070FD002802DA22
:10AF700010F1780F07D1044826F071FE0348044908
:10AF80002DF0A6FE002008BDF0030020B819002017
:10AF900051AF020070B503788AB004460E4607AD83
:10AFA000032B20D8DFE803F002191B1D11492846A6
:10AFB000FBF7CAF8059563780493A3780393E378C5
:10AFC00002932379019363790093A3790A4A1E219E
:10AFD000304623F04FFE0AB070BD0849E7E7084944
:10AFE000E5E70849E3E7084A0A21284623F042FE3C
:10AFF000E0E700BFB2D90500DBD90500B9D90500EB
:10B00000C0D90500CAD90500D4D9050010B592B041
:10B01000044628F09FFA01A9FFF7BCFF09A92046C2
:10B0200007F026F89DF82530012B13D10A4822F0AD
:10B03000DFFE204628F08EFA084B19780F221623DF
:10B0400013FB01230649194425F005FD10B90548F5
:10B0500022F0CEFE12B010BD0C040020AD85002001
:10B06000AE8500201C0400202DE9F0418AB00D4679
:10B07000164628496A4604461F4626F0F3FDF8B1F5
:10B080000098E8B10A2201A923F0BEFE019B1B78BB
:10B0900003BB162D1ED1C4B2042C1BD8DFF8888048
:10B0A0006C432A4608EB04013846B047002813DDFC
:10B0B00004F10F0002A94044FFF76CFF00200BE0F1
:10B0C00015496A46204626F0CDFD78B1009B6BB944
:10B0D000012D04D06FF015000AB0BDE8F0810F49D2
:10B0E0002A463846B04700EAE070F5E70C496A4660
:10B0F000204626F0B7FD0028E0D000980028DDD0DB
:10B10000072DE7D12EF0EBF90028D7D105492A46C3
:10B11000E7E700BFFED90500A3D90500AD850020F3
:10B1200007DA0500A6850020AE850020042808B5B2
:10B130000CD80F22162313FB002305480549184499
:10B1400025F089FCB0FA80F0400908BD0020FCE73A
:10B15000AE85002017DC0500014B1878FFF7E6BF2D
:10B16000AD8500202DE9F0410C468EB005464FF02C
:10B17000160806A9204615FB08F7FFF70BFF0D4E32
:10B18000216807F10F029319B150A2889A80A27921
:10B190009A7109492A4601A823F098FD4246F119FF
:10B1A00001A802F083FC054822F022FE0EB0BDE8A3
:10B1B000F08100BFAE8500201CDA05001C040020D1
:10B1C00038B50F23162414FB0034094B09491C44DD
:10B1D0000546204625F03FFC48B12146002004F0FA
:10B1E000E5F928460349BDE83840FFF7BBBF38BD45
:10B1F000AE85002017DC050010B504288AB002D9FE
:10B2000000200AB010BD0F23162414FB00340D4B90
:10B210000D491C44204625F01EFC0028F0D0214694
:10B22000002006F0A7FE04460028E9D001A906F098
:10B230001FFF204606F024FB9DF82400831E584281
:10B240005841DEE7AE85002017DC0500014B187879
:10B25000FFF7D2BFAD850020F0B58DB0FFF77CFFC2
:10B2600098B9FFF7F3FF80F001035B00DBB2214DDB
:10B270002A7803EB0213112B09DC022B2DD0102BA3
:10B2800023D0002420460DB0F0BD0223EFE7202B91
:10B290001BD0122BF5D105F093FB00232B70044635
:10B2A0000028EFD1144F0FCF02AE0FC63B681349F1
:10B2B000336003220094234602A805F04FFB0446A6
:10B2C0000028DFD102232B70DBE705F079FB002398
:10B2D0002B7004460028D4D0D4E7074E0FCE07AC1D
:10B2E0000FC433682360002304490093032207A896
:10B2F000E3E700BF1C86002060A005002C040020AE
:10B3000030B593B0054628F025F901A90446FFF7AA
:10B3100041FE09A9284606F0ABFE9DF82530012B19
:10B3200005D1FFF719FF214618B904F03FF913B012
:10B3300030BD034B1878FFF715FFFFF78DFFF6E7D9
:10B34000AD85002030B593B00D4609A9044606F03E
:10B350008FFE9DF82530012B0BD1204628F0FAF8FE
:10B3600001A9FFF717FE0E4B00221A701DB1FFF75F
:10B3700073FF13B030BDFFF76FFF204628F0EAF8E7
:10B38000084B19780F22162313FB01230649194491
:10B3900025F061FB0028ECD1044822F029FDE8E704
:10B3A0001C860020AD850020AE8500201C040020F6
:10B3B00008B5064806F09EFD054806F0D7FF05488B
:10B3C00006F0EEFFFFF748FF002008BDCC03002089
:10B3D000B0030020A003002008B5044B1878FFF745
:10B3E000EFFEBDE80840FFF737BF00BFAD85002086
:10B3F000014B1878704700BFAD850020042808B5C0
:10B4000010D80A4B1A7882420AD018704FF4F01202
:10B410000023074822F08EFDFFF71EFFFFF784FD93
:10B42000002008BD6FF02100FBE700BFAD850020C4
:10B43000B8190020054B187805230130B0FBF3F351
:10B4400003EB8303C01AC0B2FFF7D8BFAD8500205D
:10B45000054B187805230430B0FBF3F303EB8303AB
:10B46000C01AC0B2FFF7CABFAD850020042838B5A6
:10B470001DD80F23162414FB00340E4B0E491C4418
:10B48000204625F0E8FA18B96FF01204204638BDBE
:10B490002146002006F06EFD05460028F4D0132159
:10B4A00027F02FFF0446284606F0EAF9EEE76FF092
:10B4B0002104EBE7AE85002017DC050010B50A4B30
:10B4C0000A491A7816240F2314FB0234084B1C4433
:10B4D000204625F0C0FA28B121460020BDE81040E2
:10B4E00006F048BD10BD00BFAD85002017DC05008B
:10B4F000AE85002070B5164D90B004460146284632
:10B5000025F0A9FAE8B108A92846FFF743FD11493B
:10B51000284625F0A0FA0646B0B969462046FFF74E
:10B5200039FD23682B60A388AB80A3790A49AB71EE
:10B53000324608A823F0CAFB0722214608A802F0D9
:10B54000B5FA002010B070BD6FF00B00FAE700BF35
:10B55000A685002017DC05002CDA05001FB54D2458
:10B560000294044C0194BDF81840009429F01FFC8B
:10B5700004B010BD64DA050007B5064B0093064918
:10B58000064805234FF4407222F038FC002003B037
:10B590005DF804FB14AF050008870020E8190020BF
:10B5A000F0B5164E164F89B000220023694630468A
:10B5B00022F0AEF8054608B109B0F0BDFFF77EFFF6
:10B5C00004460028F8D01822294602A82DF001FED2
:10B5D00008230DEB030120460397CDF810D0ADF8FA
:10B5E000143008F0E1FE013003D10221204627F09B
:10B5F00072FF204606F044F9D6E700BFF00C0020A9
:10B6000080AF05002DE9F041164FDFF85C808AB06D
:10B6100001AE002200233146384622F079F8054673
:10B6200010B10AB0BDE8F081FFF748FF04460028DA
:10B63000F7D01822294604A82DF0CBFD0C2304A92D
:10B640002046CDE90586ADF81C3008F0ADFE01308E
:10B6500003D10221204627F03EFF204606F010F9D4
:10B66000D7E700BFC00C0020D0AF050037B50546B6
:10B6700040F6CD42014600230C4821F0EBFF044682
:10B6800078B110F10B0F09D1002200236946074859
:10B6900022F03EF82846FFF7E9FF0446204603B0B3
:10B6A00030BD034903482DF0E2FAF7E7F00C002023
:10B6B00054040020E819002030B5054685B040F656
:10B6C000CD42014600230D4821F0C4FF044678B165
:10B6D00010F10B0F09D10022002301A9074822F025
:10B6E00017F82846FFF7E8FF0446204605B030BDAE
:10B6F000034904482DF0BBFAF7E700BFC00C002057
:10B7000044040020E81900201FB50023CDE90233CE
:10B71000044B8DF80C0001A8019324F018FE05B02D
:10B720005DF804FB4CB0050008B500F07DFFBDE8F6
:10B73000084001492DF09BBA2405002007B50848B0
:10B740002CF0F4FF48B14FF4F0120023CDE90023B0
:10B7500004480022002323F005FA03B05DF804FB3F
:10B76000E89C0500600B002008B5FEF78DFB10B9C2
:10B770006FF0850008BDFEF799F838B10138C0B206
:10B780000128F5D803482DF077FC01E0FFF7D6FF3C
:10B790000020EFE7600B002037B5104CA568302182
:10B7A000EB6820469847B8B930212B696A46204695
:10B7B000984788B90A4C00982378834204D0C0B2D5
:10B7C0002070FFF7A1FF38B902F042F923789842C0
:10B7D00002D0184602F042F903B030BDE89C0500E3
:10B7E0001E86002008B505482CF0A0FF18B1FFF711
:10B7F000A5FF002008BD6FF01200FBE7E89C0500E4
:10B80000064A1278022A00F1FF3315BFC0F1010089
:10B810000023C018037008BF01207047A840002013
:10B82000014B1860002070474441002007B568466E
:10B83000FFF7E6FF88B1012814BF01230223084A5D
:10B840001278002062F30700064A127862F30F2094
:10B8500063F3174003B05DF804FB0346EFE700BF56
:10B860001F8600202186002013B50C4B1C6894B164
:10B87000FFF7DCFF8DF80400C0F30723C0F3074097
:10B880008DF805308DF8060001990548234602B071
:10B89000BDE81040184702B010BD00BF4441002071
:10B8A0001CF3050013B50E4B01221A700D4B1C68DA
:10B8B00094B1FFF7BBFF8DF80400C0F30723C0F37A
:10B8C00007408DF805308DF806000199064823469B
:10B8D00002B0BDE810401847204602B010BD00BFBE
:10B8E0001F860020444100201CF3050013B50024EE
:10B8F00008490948009405234FF4007222F07EFAAB
:10B90000064806F0F7FA064826F0A9F9204602B0E4
:10B9100010BD00BF088A0020D01A0020600500205A
:10B92000340500201FB50E4B1878A0B10D4B1878C8
:10B93000A0B90D4A526872B901221A700B4A1068F8
:10B94000516801AB03C390681860094901A805F06C
:10B950004BFB00EAE07005B05DF804FB0020FAE75D
:10B960002186002020860020A840002074A0050029
:10B97000CDC0020008B5FEF72FF810B1024822F042
:10B9800037FA002008BD00BF8405002030B50E4CFA
:10B990000E4D87B00022002302A9204621F0B8FEF8
:10B9A00008B107B030BDDDF811009DF815300090EA
:10B9B0008DF80430DDF80920DDF80D309DF8081011
:10B9C000284600F0B9FCE5E7300C00201CF3050028
:10B9D00070B503788AB004460E4607AD032B20D815
:10B9E000DFE803F002191B1D11492846FAF7ACFBEA
:10B9F000059563780493A3780393E37802932379FE
:10BA0000019363790093A3790A4A1E21304623F0FB
:10BA100031F90AB070BD0849E7E70849E5E7084988
:10BA2000E3E7084A0A21284623F024F9E0E700BFAB
:10BA3000B2D90500DBD90500B9D90500C0D9050088
:10BA4000CAD90500D4D9050008B5FDF7D5FF0146D0
:10BA500004480378022B04D1BDE80840C9B225F0A0
:10BA6000A4B808BDA840002008B50A4B187018B14A
:10BA7000BDE80840FFF756BF074B187005F004FB00
:10BA8000064B1A78022A03D15868132127F039FC93
:10BA9000002008BD2186002020860020A84000202C
:10BAA0002DE9F041DFF8B8802C4D92B00022002340
:10BAB00009A9404621F02CFE044670B99DF82400E7
:10BAC0009C2606FB00F3EA18EB5C022BEED19DF8F6
:10BAD0002570012F04D0022F39D012B0BDE8F081BB
